:100000000C9438000C94F7010C94E7030C94E7036C
:100010000C94E7030C94E7030C94E7030C94E703B8
:100020000C94E7030C94E7030C94E7030C94E703A8
:100030000C94E7030C94E7030C94E7030C94E70398
:100040000C9462000C94E7030C94E7030C94E70310
:100050000C94E703007100730007E70068006D006F
:1000600007DE006D00710007E3006000680007D63E
:1000700011241FBECFE5D8E0DEBFCDBFE4E5F0E040
:1000800040E017C0B591A59135912591059107FDE7
:100090000CC095918591EF01F92FE82F05900D92F5
:1000A000A217B307D9F7FE0104C01D92A217B30728
:1000B000E1F7E037F40731F70E9425020C94600065
:0400C000F894FFCFE2
:1000C4001F920F920FB60F9211240F931F932F9329
:1000D4003F934F935F936F937F938F939F93AF93CC
:1000E400BF93EF93FF93CF93DF93CDB7DEB76497BE
:1000F400DEBFCDBF0E94DB03BC01660F771F660F16
:10010400771F860F971FBC01990F880B990B0E94CC
:100114008D012FE632E143E85FE30E94E0030E9491
:10012400B903DC01CB018C014AE0BE016F5F7F4F54
:100134000E949403053C19402CF082E090E00E9458
:10014400890305C061E082E090E00E94480148E62E
:1001540050E067E080E00E942303AE014F5F5F4FF1
:1001640067E080E00E9423038FEF93ED20E381504A
:1001740090402040E1F700C0000064960FB6F89468
:10018400DEBF0FBECDBFDF91CF91FF91EF91BF9145
:10019400AF919F918F917F916F915F914F913F911B
:1001A4002F911F910F910F900FBE0F901F901895D4
:1001B4000E94C70358F00E94C00340F029F45F3F37
:1001C40029F00C94D50351110C94CF030C94E4033F
:1001D4000E949E0268F39923B1F3552391F3951B72
:1001E400550BBB27AA2762177307840738F09F5F54
:1001F4005F4F220F331F441FAA1FA9F335D00E2EC1
:100204003AF0E0E832D091505040E695001CCAF72D
:100214002BD0FE2F29D0660F771F881FBB1F2617F0
:1002240037074807AB07B0E809F0BB0B802DBF01C7
:10023400FF2793585F4F3AF09E3F510578F00C9496
:10024400D5030C94CF035F3FE4F3983ED4F3869533
:1002540077956795B795F7959F5FC9F7880F911DB7
:100264009695879597F90895E1E0660F771F881FA3
:10027400BB1F621773078407BA0720F0621B730B56
:0C028400840BBA0BEE1F88F7E09508957C
:100290006230B9F018F4613031F008956330F9F04C
:1002A000643059F108954BB321E030E0B90102C048
:1002B000660F771F8A95E2F7CB01809584238BBB6D
:1002C000089548B321E030E0B90102C0660F771FFE
:1002D0008A95E2F7CB018095842388BB089545B3C6
:1002E00021E030E0B90102C0660F771F8A95E2F77E
:1002F000CB018095842385BB089542B321E030E093
:10030000B90102C0660F771F8A95E2F7CB0180958D
:06031000842382BB089566
:10031600E89409C097FB3EF4909580957095619599
:100326007F4F8F4F9F4F9923A9F0F92F96E9BB274F
:100336009395F695879577956795B795F111F8CFCB
:10034600FAF4BB0F11F460FF1BC06F5F7F4F8F4F36
:100356009F4F16C0882311F096E911C0772321F02C
:100366009EE8872F762F05C0662371F096E8862FC4
:1003760070E060E02AF09A95660F771F881FDAF71B
:0A038600880F9695879597F9089562
:100390000E94A60288F09F5798F0B92F9927B7516D
:1003A000B0F0E1F0660F771F881F991F1AF0BA9519
:1003B000C9F714C0B13091F00E94CE03B1E00895A6
:1003C0000C94CE03672F782F8827B85F39F0B93F98
:1003D000CCF3869577956795B395D9F73EF49095CC
:0E03E0008095709561957F4F8F4F9F4F0895C8
:1003EE001F920F920FB60F9211242F933F934F939C
:1003FE005F936F937F938F939F93AF93BF93EF937F
:10040E00FF938091710090917200892B31F00E94C0
:10041E00E9031092720010927100FF91EF91BF915B
:10042E00AF919F918F917F916F915F914F913F917E
:0C043E002F910F900FBE0F901F9018958B
:10044A0061E070E082E090E00E94C00261E082E038
:10045A0090E00E94480161E070E083E090E00E9431
:10046A00E1020E94B2030E9402030E94A90381E0F2
:10047A0090E00E949F03789440E650E060E080E0BC
:10048A000E9423034DE650E06DE080E00E942303C2
:02049A00FFCF92
:10049C009BB39F70282F207F922B9BBBC198C39A34
:1004AC0035E33A95F1F70000C398EFE3FFE131979C
:1004BC00F1F700C000002BB32F70F0E18F9FC0014B
:1004CC001124822B8BBBC39A35E03A95F1F70000CF
:1004DC00C3988FE39FE10197F1F700C000000895E6
:1004EC009BB39F70282F207F922B9BBBC19AC39AE2
:1004FC0035E33A95F1F70000C398EFE1F3E031975B
:10050C00F1F700C000002BB32F70F0E18F9FC001FA
:10051C001124822B8BBBC39A35E33A95F1F700007B
:10052C00C3988FE59DE60197F1F700C00000089590
:10053C0057FD9058440F551F59F05F3F71F0479588
:10054C00880F97FB991F61F09F3F79F0879508956D
:10055C00121613061406551FF2CF4695F1DF08C08C
:10056C00161617061806991FF1CF869571056105A9
:04057C000894089542
:100580006115710581F061307105D1F44AB321E044
:1005900030E0B90102C0660F771F8A95E2F7CB0100
:1005A000842B8ABB08954AB321E030E0B90102C030
:1005B000660F771F8A95E2F7CB01809584238ABB6B
:0205C00008959C
:1005C2006115710581F061307105D1F441B321E00B
:1005D20030E0B90102C0660F771F8A95E2F7CB01BE
:1005E200842B81BB089541B321E030E0B90102C000
:1005F200660F771F8A95E2F7CB018095842381BB32
:02060200089559
:1006040080EF8ABB8FE087BBC2982FEF89EF90E021
:10061400215080409040E1F700C0000083E30E9435
:100624004E0282E30E944E0288E20E944E028CE057
:100634000E944E0286E00E944E0281E00E944E0219
:02064400089517
:10064600CF93DF93EA01811108C0603178F4862FD9
:100656008F7080680E944E0209C0813039F4603183
:1006660028F4862F8F70806C0E944E02CE010E9465
:080676007A03DF91CF91089592
:10067E00BB27FB015527AA27880F991FAA1FA4176E
:10068E0010F0A41B83955051B9F7A05DAA3308F062
:10069E00A95DA193009779F7B111B1931192CB0196
:0406AE000C946A033B
:1006B200092E0394000C11F4882352F0BB0F40F46E
:1006C200BF2B11F460FF04C06F5F7F4F8F4F9F4FAE
:0206D200089589
:1006D400DC01FC01672F71917723E1F7329704C0A5
:1006E4007C916D9370836291AE17BF07C8F3089530
:1006F400CF93DF93EC018881882331F021960E9407
:0E070400760289918111FBCFDF91CF9108958C
:100712009BB321E030E002C0220F331F8A95E2F73B
:06072200292B2BBB0895FA
:10072800BB274A3031F4992322F4BDE29095819594
:060738009F4F0C944003EA
:10073E008830910530F497B1987F97B997B1892B8E
:04074E0087B90895CA
:1007520017B83E9A80B7806480BF86B18F6A86B927
:020762000895F8
:0E07640085B7836085BF8BB780648BBF089517
:0E0772000E94C8016894B1110C94CF03089541
:0E07800000240A941616170618060906089596
:0E078E0000240A941216130614060506089598
:0E079C00E894BB2766277727CB0197F90895CD
:0C07AA0097F99F6780E870E060E0089518
:0A07B60084B125B190E0922B089564
:0807C0000E94EA000C945903A9
:0607C8009FEF80EC089594
:0407CE000C94000087
:0407D200369A0895B6
:0807D600566F6C74203D2000F9
:0507DE00202020200096
:0407E300206D56002F
:0207E70001000F
:00000001FF
